:020000040800F2
:10000000B00800203927000801010008030100089A
:10001000070100080B0100080F01000800000000A4
:1000200000000000000000000000000013010008B4
:100030001501000800000000170100081901000860
:1000400053270008532700085327000853270008A8
:100050005327000853270008532700085327000898
:100060005327000853270008532700085327000888
:100070005327000853270008532700085327000878
:100080005327000853270008532700085327000868
:100090005327000853270008532700085327000858
:1000A0005327000853270008532700085327000848
:1000B00005100008B9080008ED0F000853270008D4
:1000C0005327000853270008532700085327000828
:1000D000532700088F060008FD260008DD260008CB
:1000E000952000085327000853270008DFF80CD09C
:1000F00004F0D8FE004800471D010008B0080020A9
:10010000704700BFFEE700BFFEE700BFFEE700BF8D
:10011000FEE77047704770477047000000F0FCFA38
:1001200000F02CFB00F0AEF94FF4E13000F071FA72
:100130004FF4165002F07FFA4FF4165002F03CFADA
:1001400002F028F800F008FA01F058F800F092FEEA
:1001500000F0DDFE002141F61F4000F0FBFF01F042
:1001600066FE01F0ECF901F0F5FE00F05FFF41F6EC
:100170001F41642001F0C4F80120424908703EE0AC
:1001800001F002FF012000F00AFB3F48006828B997
:100190001E203E4908603E49086030E03A48006849
:1001A000012805D13220394908603949086026E024
:1001B00035480068022805D1462034490860344992
:1001C00008601CE030480068032805D11E202F4934
:1001D00008602F49086012E02B480068042805D108
:1001E00032202A4908602A49086008E02648006849
:1001F000052804D146202549086025490860BFE745
:1002000008B50121102003F0E9F8F020ADF8000056
:1002100048208DF8030069461E4802F023FE0121A4
:10022000102003F0DBF81820ADF8000048208DF80E
:1002300003006946184802F015FE08BD10B501F02C
:100240007EF901F087FE15480078612806D0622803
:100250000AD063280DD0642811D10DE001F0E8FE2A
:1002600014200F4908600AE04FF4165002F0A4F978
:1002700005E0FFF7C5FF02E001F08CFF00BF00BF03
:1002800010BD0000210000204C00002018000020BC
:100290001C00002000080140000C0140200000204C
:1002A0003C0000200CB50020019000906C480068D4
:1002B00040F480306A49086000BF6948006800F473
:1002C000003000900198401C0190009818B90198E6
:1002D000B0F5A06FF1D16248006800F4003010B1B1
:1002E0000120009001E0002000900098012843D1F7
:1002F0005C48006840F010005A49086008460068F1
:1003000020F0030008600846006840F00200086022
:10031000534840685249486008464068486008466B
:10032000406840F4806048600846406820F47C10D3
:1003300048600846406840F4E81048600846006895
:1003400040F08070086000BF4548006800F0007011
:100350000028F9D04248406820F003004049486036
:100360000846406840F00200486000BF3C484068D2
:1003700000F00C000828F9D10CBD10B5FFF792FF72
:1003800010BD10B53648006840F0010034490860DF
:1003900008464068344908403149486008460068CA
:1003A000324908402E4908600846006820F4802041
:1003B00008600846406820F4FE0048604FF41F00C3
:1003C0008860FFF7DAFF4FF000602949086010BD30
:1003D00010B5002100200022214B5B6803F00C01C6
:1003E00021B1042906D0082928D107E0214B224C4D
:1003F000236027E01F4B204C236023E0184B5B68F1
:1004000003F47010164B5B6803F48032022303EB95
:10041000904022B9194B4343174C23600DE0104B19
:100420005B6803F4003323B1144B4343124C236045
:1004300003E0104B4343104C236003E00D4B0E4C84
:10044000236000BF00BF064B5B68C3F303130C4C73
:10045000E15C094B1B68CB40074C236010BD0000DA
:1004600000100240002002400000FFF8FFFFF6FEEF
:1004700008ED00E000127A005000002000093D0065
:100480005400002010B56FF0040002F0B6F92E48B9
:1004900000682E49B0FBF1F02D490870084600783D
:1004A00000EB4001C1EBC0104FF6FF7101EAC00044
:1004B0002849088010BD0146254A12784A434FF06A
:1004C000E0235A6100229A611A46126942F0010241
:1004D0001A6100BF4FF0E022106900F001021AB16A
:1004E00000F48032002AF5D04FF0E022126922F0A9
:1004F00001024FF0E0231A6100229A617047014621
:10050000144A12884A434FF0E0235A6100229A614C
:100510001A46126942F001021A6100BF4FF0E02250
:10052000106900F001021AB100F48032002AF5D0FF
:100530004FF0E022126922F001024FF0E0231A612D
:1005400000229A61704700005000002000127A00DB
:10055000640000206600002008B54FF4A06002F09F
:10056000FDF817208DF8000001208DF801008DF8AE
:1005700002008DF80300684602F0F5F828208DF897
:10058000000001208DF8010002208DF802000120FA
:100590008DF80300684602F0E6F826208DF800008A
:1005A00000208DF8010001208DF802008DF8030075
:1005B000684602F0D8F827208DF8000000208DF85A
:1005C000010001208DF802008DF80300684602F05A
:1005D000CAF81D208DF8000000208DF801000320CE
:1005E0008DF8020001208DF80300684602F0BBF888
:1005F00008BD0000014600BF704700BF424A128894
:1006000002F04002002AF9D0C2B23F4B1B1D1A80F3
:10061000704710B586B00446012144F2050002F08F
:10062000DDFE4FF40070ADF8140003208DF81600C5
:1006300018208DF8170005A9344802F013FC4FF478
:100640008060ADF8140004208DF8170005A92F482C
:1006500002F008FC01940020ADF80800ADF80A0093
:10066000ADF80C00ADF810000C20ADF80E0001A99B
:10067000254803F068FE012240F22551224803F08C
:10068000FAFE0121204803F0EAFE06B010BD10B5C5
:1006900040F225511C4803F0D3FF10B31A4803F071
:1006A0004FFFC4B21A48007800F08000C8B918485B
:1006B000007800F0400060B10A2C03D000201449FB
:1006C000087020E01248007840F08000104908705F
:1006D00019E00D2C06D10E48007840F040000C497E
:1006E000087010E00A48007800F03F0009490C54F7
:1006F00007480078401C06490870084600783F28E3
:1007000001DD0020087010BD0038014000080140E4
:100710006C0000206404002008B50121102002F0C4
:100720005DFE4FF40040ADF8000010208DF803008E
:1007300003208DF8020069460C4802F093FB08BDC7
:1007400018B900210A4A11600FE00A490968491CDA
:10075000084A1160814208D105490968C943064A1F
:10076000C2F8BC110021034A11607047001001401B
:10077000BC012242700000200000224208B5012185
:10078000102002F02BFE4FF48040ADF8000048200E
:100790008DF8030069460D4802F064FB08BD10B5F2
:1007A00004464FF48041094802F0EFFB60B900BFF6
:1007B0004FF48041054802F0E8FB0028F8D00448D7
:1007C0000068401C02490860002010BD0010014074
:1007D0004C0000202DE9F05F04460D46281BFE4921
:1007E00008600846006804F0BFF98346FB480168CA
:1007F000584603F0C1FF8046F7490968F84A126875
:10080000881A04F0B1F98346F6480168584603F0A7
:10081000B3FF8146414603F057FF0746F2480068A0
:1008200004F0A2F98246394603F04EFF064604F072
:10083000C7F9ED490860E8480068E9490860EA48F6
:100840000068BDE8F09F2DE9F05F04460D46281BC7
:10085000E64908600846006804F086F98346DF48E8
:100860000168584603F088FF8046E0490968E04A7D
:100870001268881A04F078F98346DA480168584605
:1008800003F07AFF8146414603F01EFF0746D94830
:10089000006804F069F98246394603F015FF064600
:1008A00004F08EF9D3490860D0480068D049086048
:1008B000D0480068BDE8F09F10B50121CE4803F094
:1008C000EAFC00283CD00121CB4803F0F5FC642071
:1008D000FFF736FF022000F064FB4042C749086082
:1008E000042000F05EFBC6490860C6480078401C42
:1008F000C4490870084600780A2805D1002008700D
:1009000000F0D5FCC0490860C0480168BC480068D8
:10091000FFF799FFBE490860BE480168B748006804
:10092000FFF758FFBC49086000F0CEFBB6480068EE
:1009300000F0EDFBB8480168B548006800F091FB95
:1009400010BD4218B14B1A60421AB24B1A60704780
:100950000020B2490870B2480068097801EBC00075
:10096000AE490870AE48001F0068097801EB8000AE
:10097000AA490870AB480068097801EB4000A74914
:100980000870A848001F006809780844A349087047
:1009900070472DE9F84FA4480068802191FBF0FAD8
:1009A000504604F0E1F80746A0480068802191FB1A
:1009B000F0FA504604F0D8F880464FF07E590226EF
:1009C0009B48007862287AD19A480078092877D223
:1009D000DFE800F0053849647792A3BECF0096485F
:1009E000006800F037FB834604F0BEF882464946B3
:1009F00004F088F91FD29048006800280DDD8E4869
:100A0000006804F0B1F88346494603F0AFFE824621
:100A100004F0D6F88849086010E08748006804F0C0
:100A2000A3F88346494603F04FFE824604F0C8F817
:100A30008149086002E000207F49086000207F496A
:100A40000860B2E07C48006804F08EF883464946AE
:100A500003F03AFE824604F0B3F8774908600020BC
:100A600076490860A1E07448006804F07DF8834688
:100A7000494603F029FE824604F0A2F86E49086058
:100A80006E48006804F070F88346494603F01CFE87
:100A9000824604F095F86949086086E000206649BE
:100AA00008606648006804F05FF88346494603F032
:100AB0000BFE824604F084F86049086075E075E03A
:100AC00072E05D48006804F04FF88346494603F041
:100AD0004DFE824604F074F8574908605748006894
:100AE00004F042F88346494603F040FE824604F093
:100AF00067F85249086058E04F48006804F034F83D
:100B00008346494603F032FE824604F059F84A49CA
:100B1000086000204949086047E04748006804F041
:100B200023F88346494603F021FE824604F048F844
:100B3000414908604148006804F016F88346494678
:100B400003F0C2FD824604F03BF83C4908602CE00B
:100B50000020394908603948006804F005F88346E8
:100B6000494603F003FE824604F02AF83349086040
:100B70001BE03148006803F0F7FF8346494603F065
:100B8000A3FD824604F01CF82B4908602B4800683E
:100B900003F0EAFF8346494603F0E8FD824604F08D
:100BA0000FF82649086000E000BF28E120480078DF
:100BB00064287CD122480078002879D0214909682E
:100BC000A1F1800003F0D0FF04461F490968A1F19C
:100BD000800003F0C9FF39E08C000020780000207D
:100BE000940000207400002090000020800000206D
:100BF0008800002084000020000400400C00002039
:100C0000080000207C0000200000002018000020C8
:100C1000100000201C0000201400002048000020CC
:100C200010812142140121429C000020A0000020DC
:100C300020000020220000203C0000204000002076
:100C400038000020280000202C00002005467042BB
:100C500003F08AFF8246214604F04AF808D2304663
:100C600003F082FF8246214604F04CF800D20024B3
:100C7000704203F079FF8246294604F039F808D221
:100C8000304603F071FF8246294604F03BF800D25B
:100C9000002584F0004B3946584603F09FFD8246FC
:100CA0006B48006803F060FF5146009001E03EE0B1
:100CB00037E004F027F80DD26548006803F054FFD0
:100CC0008346494603F052FD824603F079FF6049AE
:100CD00008601CE084F0004B3946584603F07EFD66
:100CE00082465B48006803F03FFF5146009003F0E6
:100CF000FFFF0CD25648006803F036FF8346494692
:100D000003F0E2FC824603F05BFF51490860414674
:100D1000284603F063FD824603F052FF4D49086008
:100D20006DE000204A4908604A49086067E04A4887
:100D3000007861281AD149480078401C474908705A
:100D400008460078142803DB0020087001F002FA3E
:100D500043494448006803F0CBFF03D828203D49AD
:100D600008604CE000203B49086048E03A480078C1
:100D7000632844D1FFF7ECFD3B48007808282DD0CC
:100D800006DC012832D0022815D0042836D11BE019
:100D9000092807D00F2831D100202D4908602D499E
:100DA00008602BE02A480068401E2949086000209E
:100DB0002849086022E026480068401E244908604F
:100DC0000F202449086019E021480068401E20498E
:100DD00008606FF00E001F4908600FE06FF0090017
:100DE0001B490860C0001B49086007E06FF009005C
:100DF0001749086050201749086000BF00BF144819
:100E00000068502804DD194800681149086009E0AD
:100E10000F48006810F1500F04DA1448006840428F
:100E20000B4908600B480068282804DD104800685A
:100E30000849086009E00748006810F1280F04DA43
:100E40000B480068404203490860BDE8F88F000085
:100E50003C000020400000202000002098000020DE
:100E60000000C84204000020480000209C00002030
:100E7000A000002000B587B00121084602F0BBFAAF
:100E80000121042002F0AAFA0320ADF8000004209A
:100E90008DF803006946614801F0E4FF04A802F000
:100EA00001FF0020ADF810004FF6FF70ADF8140000
:100EB0000020ADF81600ADF8120004A94FF08040F4
:100EC00002F0C4FB00231A4603214FF0804002F0D9
:100ED000CCFF01A802F0F9FE0A20ADF80C0001A930
:100EE000400702F046FE0121880703F0D1F90122F4
:100EF0001146900702F021FF00214FF0804003F0DF
:100F000095F90121880702F0FDFE07B000BD00B58C
:100F100087B00121042002F06EFA0121082002F0BE
:100F20005DFAC020ADF8000004208DF8030069468A
:100F30003B4801F097FF04A802F0B4FE0020ADF892
:100F400010004FF6FF70ADF814000020ADF8160049
:100F5000ADF8120004A9334802F078FB00231A46CA
:100F60000321304802F081FF01A802F0AEFE0A2002
:100F7000ADF80C0001A92B4802F0FBFD0121294826
:100F800003F086F901221146264802F0D6FE002120
:100F9000244803F04BF90121224802F0B3FE07B0C8
:100FA00000BD0146022904D003290BD0042919D120
:100FB0000FE04FF08042928C10B200224FF080433D
:100FC0009A8411E0184A128810B20022164B1A8037
:100FD0000AE0144A2432128810B20022114B243342
:100FE0001A8001E0002000BF00BF70470D4810309C
:100FF00000880C481030008820F0010009491031A9
:10100000088070474FF08040008A4FF08040008A8F
:1010100020F001004FF08041088270470008014035
:10102000000C0140000800402404004008B50121E4
:10103000082002F0D3F94FF47040ADF80000102002
:101040008DF8030003208DF802006946384801F04E
:1010500009FF08BD0146002901DA484200E00846C0
:10106000704700B503460A46002B07DA01203149D4
:10107000086000203049C1F8B80106E000202D4981
:10108000086001202C49C1F8B8011846FFF7E2FFBB
:101090002A490880002A08DA002026490C3908600D
:1010A00001202549C1F8B40107E0012021490C398C
:1010B000086000202049C1F8B4011046FFF7CAFFBC
:1010C0001E490C31088000BD1D4800681D4988423A
:1010D00002DA08461A4908601948006841F6583192
:1010E000884202DD0846164908601748006815491D
:1010F000884202DA0846144908601348006841F63D
:101100005831884202DD08460F490860704770B5C3
:101110000446204603F0A5FD05460C4A0C4B03F09F
:10112000B3FD04D20020064908600749086070BD7D
:10113000000C0140BC81214200802142342C01403E
:1011400010000020A8E4FFFF140000209A9999994C
:101150009999194030B589B005460C460121C8025D
:1011600002F03CF90121042002F038F94FF410603C
:10117000ADF8200018208DF8230003208DF8220000
:1011800008A91C4801F06EFEADF81850ADF81440E7
:101190000020ADF81A00ADF8160005A9164802F0B7
:1011A00055FA6020ADF804000120ADF806000020DB
:1011B000ADF80A00ADF80C0001A90F4802F083FA5F
:1011C00001A90D4802F059FB01210B4802F0A6FDD0
:1011D0000821094802F0C6FE0821074802F0E1FE96
:1011E0000121054802F08EFE0121034802F08AFD2C
:1011F00009B030BD00080140002C014000B587B0A7
:1012000001214FF4027002F0E9F84FF4004002F0BF
:1012100049F80120ADF8040000208DF8070001A96D
:10122000324801F01FFE324801F006FB0020029018
:101230008DF80C008DF80D004FF460200490002014
:10124000059001208DF8180002A9294801F01BFB28
:101250000121274801F043FB254801F062FB00BF54
:10126000234801F063FB0028FAD1214801F068FB14
:1012700000BF1F4801F069FB0028FAD107B000BD8C
:1012800010B50446072301222146194801F093FBBB
:101290000121174801F063FB00BF0221144801F04F
:1012A000CFFC0028F9D0124801F0ECFB10BD2DE96D
:1012B000FC5F0820FFF7E4FF009003F074FC804619
:1012C0004FF066320B4B03F06EFB064600220A4BD2
:1012D00003F069FB04460022084B03F0D6FB82466C
:1012E00003F0EAFC01900198BDE8FC9F000C01406E
:1012F0000024014066660A40000026400000B0401D
:101300003EB505460C460121022002F074F8ADF806
:101310000450ADF800400020ADF80600ADF8020022
:101320006946064802F092F901224121034802F081
:1013300004FD0121014802F0E5FC3EBD000400402F
:1013400010B54FF48071F84801F039FE4FF4007188
:10135000F54801F034FE4FF40071F34801F031FE1E
:101360004FF48071F04801F02CFE10BD10B54FF421
:101370008071ED4801F023FE4FF40071EA4801F05E
:1013800020FE4FF40071E84801F019FE10BD10B5C1
:101390004FF48071E44801F012FE4FF48071E2488E
:1013A00001F00FFE10BD2DE9F04105462C464FF42B
:1013B0008071DD4801F005FE00261CE0274607F09D
:1013C0008007802F04D1B900D74801F0F8FD04E070
:1013D0004FF40071D44801F0F4FD6006040E4FF4A0
:1013E0008071D14801F0EBFD4FF48071CE4801F0DF
:1013F000E8FD701CC6B2082EE0DBBDE8F08110B538
:101400000446FFF79DFF7820FFF7CDFFFFF7BFFFF2
:101410000020FFF7C8FFFFF7BAFF2046FFF7C3FF22
:10142000FFF7B5FFFFF7A2FF10BD10B50446FFF7A9
:1014300087FF7820FFF7B7FFFFF7A9FF4020FFF7EE
:10144000B2FFFFF7A4FF2046FFF7ADFFFFF79FFFB6
:10145000FFF78CFF10BD70B504460D461DB1E0B21C
:10146000FFF7E3FF02E0E0B2FFF7C9FF70BD70B520
:101470000646002418E004F1B0000021FFF7EBFF5E
:1014800000210846FFF7E7FF00211020FFF7E3FFE8
:10149000002505E001213046FFF7DDFF681CC5B2DD
:1014A000802DF7DB601CC4B2082CE4DB70BD06E0C5
:1014B00041F6650100E0491E0029FCD1401E0028CC
:1014C000F6D17047014605E0002001E0421CD0B291
:1014D0007B28FBDB0A1EA1F10101F5D1704770B535
:1014E00004460D4605F1B0000021FFF7B4FF1021BE
:1014F00041EA14100021FFF7AEFF04F00F000021B5
:10150000FFF7A9FF70BD10B500218D20FFF7A3FFE5
:1015100000211420FFF79FFF0021AF20FFF79BFF62
:1015200010BD10B500218D20FFF795FF0021102080
:10153000FFF791FF0021AE20FFF78DFF10BD70B5C2
:10154000002418E004F1B0000021FFF784FF00211F
:101550000846FFF780FF00211020FFF77CFF0025E1
:1015600005E001210020FFF776FF681CC5B2802D41
:10157000F7DB601CC4B2082CE4DB70BD70B500243E
:1015800018E004F1B0000021FFF765FF00210846D4
:10159000FFF761FF00211020FFF75DFF002505E048
:1015A00001210846FFF757FF681CC5B2802DF7DB05
:1015B000601CC4B2082CE4DB70BD2DE9F04707467F
:1015C0000E469046994600250024A8F12000C5B299
:1015D0007F2F02DD0027B01CC6B2B9F1100F24D155
:1015E00031463846FFF77BFF002408E004EB051185
:1015F0004E4A505C0121FFF72EFF601CC4B2082C3C
:10160000F4DB701CC1B23846FFF769FF002409E023
:1016100004EB05110831454A505C0121FFF71BFF1F
:10162000601CC4B2082CF3DB12E031463846FFF7E9
:1016300056FF00240AE005EB45013D4A02EB41015B
:10164000085D0121FFF707FF601CC4B2062CF2DB26
:10165000BDE8F08710B50246012000E050430B1EA4
:10166000A1F10104E1B2F9D110BD2DE9FF5F0746F8
:1016700091461E460E9D4FF0000A002435E0301BB7
:10168000401EC1B20A20FFF7E5FFB9FBF0F00A21C6
:10169000B0FBF1F201FB1208BAF1000F14D1701E79
:1016A000A04211DDB8F1000F0CD1AB4605EBDB71A8
:1016B000491001FB0471C8B22B4620220199FFF7A3
:1016C0007CFF10E04FF0010AAB4605EBDB714910DF
:1016D00001FB0471C8B208F13001CAB22B4601996E
:1016E000FFF76BFF00BF601CC4B2B442C7DBBDE8AC
:1016F000FF9F2DE9F04105460E4614461F460EE0B9
:1017000022783B4631462846FFF757FF05F108008F
:10171000C5B2782D02DD0025B01CC6B2641C20784D
:101720000028EDD1BDE8F081000C014064510008B3
:101730003C4F00082DE9F04180460E461546002733
:1017400031464046FFF7CBFE00240AE0F74A02EBA1
:101750008511085D0121FFF77EFE781CC7B2601C71
:10176000C4B2102CF2DB701CC1B24046FFF7B7FECA
:1017700000240CE06900491CEC4A02EB4111085DB1
:101780000121FFF768FE781CC7B2601CC4B2102CA0
:10179000F0DBBDE8F0812DE9F05F06460F4690468C
:1017A0001C46DDF828A04FF0000BE11704EB517147
:1017B000C910A4EBC10131B92046E11704EB517106
:1017C000C1F3C70506E02046E11704EB5171C910CB
:1017D000491CCDB23D4615E029463046FFF77FFE55
:1017E000B1460BE059460BF1010B1AF8010001213B
:1017F000FFF731FE09F1010000F0FF09C145F1DBFF
:10180000681CC5B2A542E7DBBDE8F09F2DE9FF5F8C
:1018100086B014461D464FF0010A00200390049044
:1018200005904FF00109002600BF834600221346B1
:101830002046294603F028FA09D285F00040CDE978
:1018400000402046019903F0D4F9064604E0204602
:10185000294603F0CEF90646304603F093F92246B6
:101860002B46CDE9000103F09BF80746884600228D
:10187000AF4B3846414603F096F8CDE9000103F03E
:10188000D7F9834607E009EB89004FEA40090AF1DE
:10189000010000F0FF0A0A2096FBF0F090FBF9F03F
:1018A0000028F0D142F2107096FBF0F00A2190FB74
:1018B000F1F201FB1200C0B28DF80C004FF47A7007
:1018C00096FBF0F090FBF1F201FB1200C0B28DF834
:1018D0000D00642096FBF0F090FBF1F201FB12008A
:1018E000C0B28DF80E000A2096FBF0F090FBF1F2EA
:1018F00001FB1200C0B28DF80F000A2096FBF0F138
:1019000000FB1160C0B28DF810002E208DF8110080
:101910004FF47A70BBFBF0F00A21B0FBF1F201FB4F
:1019200012008DF812006420BBFBF0F0B0FBF1F266
:1019300001FB12008DF813000A20BBFBF0F0B0FB96
:10194000F1F201FB12008DF814000A20BBFBF0F14C
:1019500000FB11B08DF8150000211498801D03AA1A
:101960001154894608E003A810F80900303003A993
:1019700001F8090009F10109B9F10A0FF3DB0022AE
:1019800013462046294603F07FF908D20AF10100E8
:1019900000F0FF0A2D20CAF1050103AA50542E20A1
:1019A0008DF8110000211498801D03AA1154CAF16A
:1019B000050003A942180C23DDE90610FFF799FE84
:1019C0000AB0BDE8F09F2DE9F04F89B08246894604
:1019D00017469846DDF84CB001200790002004908F
:1019E000059006900124002500BF00264FEAC9603B
:1019F0004FEA10693846414603F0FBF80546284691
:101A000003F0D1F83A464346CDE9000102F0C8FFA1
:101A1000CDE902010022464BDDE9020102F0C3FFDD
:101A2000CDE9000103F004F9064606E004EB84006A
:101A300044000798401CC0B207900A20B5FBF0F0A4
:101A4000B0FBF4F00028F1D142F21070B5FBF0F0D9
:101A50000A21B0FBF1F201FB12008DF810004FF4E7
:101A60007A70B5FBF0F0B0FBF1F201FB12008DF8DB
:101A700011006420B5FBF0F0B0FBF1F201FB1200A5
:101A80008DF812000A20B5FBF0F0B0FBF1F201FB7B
:101A900012008DF813002E208DF815004FF47A7087
:101AA000B6FBF0F0B0FBF1F201FB12008DF816006E
:101AB0006420B6FBF0F0B0FBF1F201FB12008DF8F0
:101AC00017000A20B6FBF0F0B0FBF1F201FB1200A8
:101AD0008DF818000A20B6FBF0F100FB11608DF8BC
:101AE000190000210BF1060004AA1154002405E09E
:101AF00004A8005D303004A90855641C0A2CF7DBEB
:101B00002E208DF8150000210BF1060004AA1154B7
:101B10001298C0F1050004A942180C23514648460A
:101B2000FFF7E7FD09B0BDE8F08F0000A40000203A
:101B30000088C3402DE9F04105460F46164600BF18
:101B400005EB45014906080E3946FFF7C8FC00249D
:101B50000BE006F1100101EB4101FB4A02EB4101F0
:101B6000085D0121FFF777FC641C062CF1DBBDE862
:101B7000F0812DE9F04105460F46164600BF05EB02
:101B800045014906080E3946FFF7A9FC002409E083
:101B900006EB4601EC4A02EB4101085D0121FFF72B
:101BA0005AFC641C062CF3DBBDE8F0812DE9F047FC
:101BB0000546894616463446002C22DA64426420E3
:101BC00094FBF0F100FB11400A2190FBF1F0C7B249
:101BD0000A2094FBF0F100FB114000F0FF080D22F9
:101BE00049462846FFF7C5FF691CC8B23A46494630
:101BF000FFF7A0FFA91CC8B242464946FFF79AFF6B
:101C000020E0642094FBF0F100FB11400A2190FBDE
:101C1000F1F0C7B20A2094FBF0F100FB114000F094
:101C2000FF080B2249462846FFF7A3FF691CC8B2EC
:101C30003A464946FFF77EFFA91CC8B242464946CC
:101C4000FFF778FFBDE8F0872DE9F04705468A46A3
:101C500016463446002C2DDA64420D2251462846A1
:101C6000FFF787FF0A2094FBF0F100FB1140C7B299
:101C70000A2094FBF0F00A2190FBF1F201FB120024
:101C800000F0FF08642094FBF0F000F0FF09E91C6D
:101C9000C8B23A465146FFF74DFFA91CC8B24246AA
:101CA0005146FFF747FF691CC8B24A465146FFF745
:101CB00041FF2BE00B2251462846FFF75AFF0A202E
:101CC00094FBF0F100FB1140C7B20A2094FBF0F046
:101CD0000A2190FBF1F201FB120000F0FF086420E2
:101CE00094FBF0F000F0FF09E91CC8B23A465146F7
:101CF000FFF720FFA91CC8B242465146FFF71AFF62
:101D0000691CC8B24A465146FFF714FFBDE8F08788
:101D10002DE9F05F05468B4616463446002C00DA66
:101D200064424FF47A7094FBF0F0C7B24FF47A70CB
:101D300094FBF0F100FB1140642190FBF1F000F006
:101D4000FF08642094FBF0F100FB11400A2190FB96
:101D5000F1F000F0FF090A2094FBF0F100FB1140C4
:101D600000F0FF0A3A4659462846FFF7E3FE691C91
:101D7000C8B242465946FFF7DDFEA91CC8B24A4622
:101D80005946FFF7D7FEE91CC8B252465946FFF73D
:101D9000D1FEBDE8F09F2DE9F05F05460E461446E2
:101DA00042F21070B4FBF0F0C7B242F21070B4FB14
:101DB000F0F100FB11404FF47A71B0FBF1F000F04C
:101DC000FF080846B4FBF0F100FB11406421B0FBB2
:101DD000F1F000F0FF096420B4FBF0F100FB1140CA
:101DE0000A21B0FBF1FA0A20B4FBF0F100FB114B21
:101DF0003A4631462846FFF79DFE691CC8B2424666
:101E00003146FFF797FEA91CC8B24A463146FFF794
:101E100091FEE91CC8B252463146FFF78BFE291DE0
:101E2000C8B25A463146FFF785FEBDE8F09F08B5B7
:101E30000121092001F0D2FA0121444801F0E3F820
:101E40004FF44070ADF8000010208DF8030003201F
:101E50008DF8020069463E4801F004F84FF44071E5
:101E60003B4801F0ACF84FF44870FEF748FB002106
:101E7000AE20FFF7F0FA00210846FFF7ECFA002148
:101E80001020FFF7E8FA00214020FFF7E4FA0021D4
:101E9000B020FFF7E0FA00218120FFF7DCFA0021F3
:101EA000FF20FFF7D8FA0021A120FFF7D4FA002184
:101EB000A620FFF7D0FA0021A820FFF7CCFA0021D6
:101EC0003F20FFF7C8FA0021C820FFF7C4FA00211D
:101ED000D320FFF7C0FA00210846FFF7BCFA002123
:101EE000D520FFF7B8FA00218020FFF7B4FA0021CF
:101EF000D820FFF7B0FA00210520FFF7ACFA002147
:101F0000D920FFF7A8FA0021F120FFF7A4FA002159
:101F1000DA20FFF7A0FA00211220FFF79CFA002137
:101F2000DB20FFF798FA00213020FFF794FA002118
:101F30008D20FFF790FA00211420FFF78CFA002182
:101F4000AF20FFF788FA08BD3C4F000800023000C0
:101F5000000C014010B50C2327A201210020FFF73F
:101F6000C8FB0C2325A201213C20FFF7C2FB0C2358
:101F700023A202210020FFF7BCFB0C2322A2022196
:101F80003C20FFF7B6FB10BD08B5214800680228C9
:101F900006DC0C231FA204210020FFF7AAFB29E086
:101FA0000C231EA204210020FFF7A3FB0C20022318
:101FB00000901C48012102681920FFF756FB0C20F5
:101FC000022300901848012102685520FFF74DFBBD
:101FD0000C20022300901548194602681920FFF7CB
:101FE00044FB0C200223009010481946026855203B
:101FF000FFF73BFB08BD00004C3A0000523A0000DE
:102000004C5F533A00000000525F533A000000005A
:102010004C00002046697273740000005365636FC2
:102020006E640000080000200C0000201800002052
:102030000EB50121092001F0D1F94FF48060ADF80F
:10204000080010208DF80B0003208DF80A0002A96B
:10205000484800F007FF4FF40060ADF80800282062
:102060008DF80B0002A9434800F0FCFE0B21012073
:1020700001F00EF84FF40060009000208DF804008D
:1020800008208DF8050001208DF80600684600F054
:1020900009FE0EBD2DE9FE4F374800683749B0FBF9
:1020A000F1F000F0FF0A4FF00009102034490870E9
:1020B0000A20FEF700FA4FF4006000F059FE0028F5
:1020C00042D04FF6FF704FF0E0214861886108462A
:1020D000006940F00100086100BF4FF4006125482D
:1020E00000F053FF0028F8D14FF0E0208469006928
:1020F00020F001004FF0E02108614FF6FF71081B4E
:1021000002F03BFD0546494602F0DEFA81465046A4
:1021100002F033FD1B490190484602F02DFB009070
:10212000019902F05BFB1849029002F057FB8346CD
:1021300002F097FD07460022144B02F0A6FC05466C
:1021400002F0BAFD124908604FF4006000F021FE71
:10215000BDE8FE8F10B54FF48061064800F02FFFF8
:102160001420FEF7A8F94FF48061024800F029FF1F
:1021700010BD0000000C01405000002000127A0049
:10218000220000200000AA4300007A4400001D4005
:102190000400002008B50121042001F01FF93020BF
:1021A000ADF8000010208DF8030003208DF8020028
:1021B0006946F74800F056FE1020ADF800008DF893
:1021C000030003208DF802006946F24800F04AFE41
:1021D0000820ADF8000048208DF803006946ED485E
:1021E00000F040FE08BD38B50446012000900020F4
:1021F000E9494870012000902DE0BDF80000204022
:1022000018B10120E549086002E00020E3490860B8
:102210000120E34908600520FEF74DF90020E1495F
:10222000C1F890010520FEF746F90120DD49C1F80B
:102230009001DD48D0F80C0130B1D7484078BDF8A6
:1022400000100843D4494870BDF800004FF6FF71F4
:1022500001EA40000090BDF80000FF28CDDD10200D
:10226000FEF729F938BD10B50020CD49091D0860D9
:10227000CE490878FFF7B7FFCC494878FFF7B3FF9E
:102280000120C849C1F89401C3484078732801D19E
:10229000002010BD0120FCE71CB5002001900120AA
:1022A00000900020BE49091D0860C0490878FFF76A
:1022B0009AFFBE494878FFF796FF0220019035E06B
:1022C0000120009026E00120B54908600520FEF7B6
:1022D000F2F80020B349C1F890010520FEF7EBF8B1
:1022E0000120B049C1F89001AF48D0F80C0150B1BD
:1022F000A9489DF80410405CBDF800100843A649A9
:102300009DF804208854BDF800004FF6FF7101EAE3
:1023100040000090BDF80000FF28D4DD1020FEF73B
:10232000CAF89DF80400401CC0B201909DF804005A
:102330000928C5DB01209A49091D08601CBD002041
:1023400004E00021944A1154411CC8B20928F8DB6A
:10235000704710B5FFF7F3FFFFF79EFF8E48C07878
:102360008D49097940EA01209149088000240FE055
:10237000904810F81400401E012101FA00F08C4929
:102380000988084010B9601CC0B210BD601CC4B2FE
:10239000102CEDDB0020F8E701467F48405C7047D9
:1023A00070B505460C4600207D49091D08601020C7
:1023B000FEF781F80120FFF716FF4220FFF713FF19
:1023C0000020FFF710FF2846FFF70DFF2046FFF71C
:1023D0000AFF0020FFF707FF0020FFF704FF00209F
:1023E000FFF701FF0020FFF7FEFE01206D49C1F855
:1023F00094011020FEF75FF870BD10B50020684909
:10240000091D08601020FEF756F80120FFF7EBFECB
:102410004220FFF7E8FE0020FFF7E5FE0020FFF76F
:10242000E2FE0020FFF7DFFE01205E49C1F89401C3
:102430001020FEF740F810BD10B500205849091DC6
:1024400008601020FEF737F80120FFF7CCFE43208C
:10245000FFF7C9FE0020FFF7C6FE0120FFF7C3FE0D
:102460000020FFF7C0FE0020FFF7BDFE0020FFF7B1
:10247000BAFE0020FFF7B7FE0020FFF7B4FE0120F0
:102480004849C1F894011020FEF715F810BD10B5A9
:1024900000204349091D08600120FFF7A4FE4420E5
:1024A000FFF7A1FE0020FFF79EFE0120FFF79BFE35
:1024B0000320FFF798FE0020FFF795FE0020FFF7AE
:1024C00092FE0020FFF78FFE0020FFF78CFE012018
:1024D0003449C1F894011020FDF7EDFF10BD10B58F
:1024E00000202F49091D08601020FDF7E4FF01209E
:1024F000FFF779FE4D20FFF776FE0020FFF773FE11
:102500000020FFF770FE0120FFF76DFE0120254936
:10251000C1F894011020FDF7CEFF10BD10B50020CA
:102520001F49091D08601020FDF7C5FF0120FFF7B6
:102530005AFE4320FFF757FE0020FFF754FE00200D
:10254000FFF751FE5A20FFF74EFE5A20FFF74BFED1
:102550005A20FFF748FE5A20FFF745FE5A20FFF7A2
:1025600042FE01200F49C1F894011020FDF7A3FF9E
:1025700010BD10B5FFF741FFFFF73FFFFFF73DFF2D
:10258000FFF75AFFFFF783FFFFF7C8FF10BD0000FA
:1025900000080140000C0140A40400209081214269
:1025A00090012142000021420080214226040020A7
:1025B000240400202804002010B586B00446012120
:1025C000042000F00BFF0121480400F014FF042058
:1025D000ADF8140003208DF8160018208DF81700B0
:1025E00005A94E4800F03EFC0820ADF81400042078
:1025F0008DF8170005A9494800F034FC019400202B
:10260000ADF80800ADF80A00ADF80C00ADF8100008
:102610000C20ADF80E0001A9414801F094FE012202
:1026200040F225513E4801F026FF01213C4801F0CF
:1026300016FF06B010BD10B586B004460121082073
:1026400000F0CCFE0121880400F0D5FE4FF480603C
:10265000ADF8140003208DF8160018208DF817002F
:1026600005A9304800F0FEFB4FF40060ADF81400FF
:1026700004208DF8170005A92A4800F0F3FB019407
:102680000020ADF80800ADF80A00ADF80C00ADF878
:1026900010000C20ADF80E0001A9234801F053FEF4
:1026A000012240F22551204801F0E5FE01211E489B
:1026B00001F0D5FE06B010BD412806DB482804DC39
:1026C000A0F14001194A117007E0082802DC1749FF
:1026D000087002E00021154A1170704710B540F2F1
:1026E0002551114801F0ACFF38B10F4801F028FF27
:1026F0000F4908600878FFF7DFFF10BD10B540F202
:102700002551074801F09CFF38B1054801F018FF3A
:10271000084908600878FFF7CFFF10BD00080140A6
:1027200000440040000C014000480040220000200E
:10273000480400204C040020064880470648004713
:10274000FEE7FEE7FEE7FEE7FEE7FEE7FEE7FEE761
:10275000FEE7FEE783030008ED000008314901436E
:10276000314A1160704770B5002100230F22C478F0
:1027700004B32D4C246804F4E064C4F5E064210A39
:10278000C1F10403CA40447804FA03F18478144088
:1027900021430901254C0678A155047804F01F0552
:1027A0000124AC4005786D11AD0005F1E025C5F8B8
:1027B000004109E0047804F01F050124AC401C4DE1
:1027C0000678761145F8264070BD1A4A0A40024341
:1027D000154B1B1F1A60704739B1134A121D12683E
:1027E0000243114B1B1D1A6006E00F4A121D1268AE
:1027F00082430D4B1B1D1A607047042808D14FF00F
:10280000E021096941F004014FF0E022116107E085
:102810004FF0E021096921F004014FF0E02211613D
:10282000704700000000FA050CED00E000E400E055
:1028300080E100E080FFFF1F10B50446FA488442A3
:1028400008D10121401500F0E3FD0021601500F0E2
:10285000DFFD17E0F548844208D10121001500F0A2
:10286000D7FD0021201500F0D3FD0BE0F048844295
:1028700008D10121C80300F0CBFD00214FF4004036
:1028800000F0C6FD10BD30B50246002000235068A0
:10289000E84C20400D790C6844EA05242043506040
:1028A0009068E54C2040D1E902542C434D7944EA2C
:1028B000450420439060D06A20F470000C7C641EB4
:1028C000E4B2234340EA0350D06230BD00210160EE
:1028D000017141718160C16001210174704721B1B2
:1028E000826842F00102826003E0826822F0010205
:1028F0008260704721B1826842F48072826003E096
:10290000826822F480728260704710B50023CBB2D7
:102910001AB144681C43446002E044689C4344602C
:1029200010BD816841F008018160704701460020B8
:102930008A6802F008020AB1012000E00020704716
:10294000816841F0040181607047014600208A6877
:1029500002F004020AB1012000E00020704721B11A
:10296000826842F4A002826003E0826822F4A0023E
:1029700082607047014600208A6802F480020AB132
:10298000012000E00020704710B50A460021002316
:10299000416821F46041531E41EA4331416010BD5A
:1029A00021B1426842F40062426003E0426822F4CE
:1029B000006242607047F0B504460D4600200021D9
:1029C000092D11DDE068A5F10A0606EB460707268A
:1029D00006FA07F18843A5F10A0606EB460603FA54
:1029E00006F10843E0600CE0206905EB4507072687
:1029F00006FA07F1884305EB450603FA06F108439A
:102A00002061072A0FDA606B561E06EB86071F2629
:102A100006FA07F18843561E06EB860605FA06F10C
:102A20000843606322E00D2A0FDA206BD61F06EB05
:102A300086071F2606FA07F18843D61F06EB86068F
:102A400005FA06F10843206310E0E06AA2F10D06E2
:102A500006EB86071F2606FA07F18843A2F10D064A
:102A600006EB860605FA06F10843E062F0BD21B1E7
:102A7000826842F48012826003E0826822F480124D
:102A8000826070470146C86C80B2704766484C301F
:102A90000068704721B1426842F48062426003E0FE
:102AA000426822F480624260704721B1426842F479
:102AB0008052426003E0426822F4805242607047D4
:102AC0000A460021816821F4E0411143816070478A
:102AD00021B1826842F40042826003E0826822F4FD
:102AE00000428260704721B1826842F40212826023
:102AF00003E0826822F402128260704701460020DF
:102B00008A6802F400120AB1012000E00020704738
:102B1000F0B504461546002000220026092911DDE3
:102B2000E068A1F10A0707EB470C072707FA0CF248
:102B30009043A1F10A0707EB470703FA07F2104396
:102B4000E0600CE0206901EB410C072707FA0CF26A
:102B5000904301EB410703FA07F210432061A06B99
:102B6000C0F30156EF1C06F1010CA7EB0C0707EBB5
:102B7000870C1F2707FA0CF29043EF1C06F1010C9B
:102B8000A7EB0C0707EB870701FA07F21043A063D6
:102B9000F0BD10B50A4600210023816B21F44011DD
:102BA000531E41EA0351816310BD08B50023009311
:102BB0000090009B0B440093009B1A6008BD08B571
:102BC000024600200090009201F12800009B18446A
:102BD00000900098006880B208BD0A460021416854
:102BE000164B194011434160704741628262704741
:102BF0000A460021416821F01F01114341607047DE
:102C000040B109490831096841F40001064A083217
:102C1000116007E004490831096821F40001024A03
:102C20000832116070470000002401400028014074
:102C3000003C0140FFFEF0FFFDF7F1FFFFFD3FFF0D
:102C40000246002013680B400BB1012000E0002079
:102C50007047CA430260704770B5024600200023E7
:102C600000240B125568CEB205EA060415681D4013
:102C700015B10CB1012000E0002070BD00220A1245
:102C8000D343036070470000002044490860091DD9
:102C90000860091D0860091D086041483F4914315A
:102CA0000860704700213D498279002A3AD00A46DF
:102CB000126803689A430B461A600A1D126803687B
:102CC0009A430B1D1A60027911440A6803681A437B
:102CD0000A60324A0832126803689A432F4B08335D
:102CE0001A601A1D126803689A432C4B0C331A6041
:102CF0004279102A0ED11A1F126803681A43274B13
:102D000008331A601A1D126803681A43234B0C33E8
:102D10001A600DE02149427911440A6803681A4398
:102D20000A6005E0027911440A6803689A430A6060
:102D300070470021016001710C21417100218171F6
:102D400070471649103109680143144A1032116066
:102D5000704701460020114A143212680A400AB135
:102D6000012000E0002070470C49143108607047D2
:102D7000014600200022094B1B6803EA0102074BB1
:102D800014331B680B4013B10AB1012000E000208E
:102D90007047024914310860704700000004014088
:102DA000FFFF0F0010B50446CC48844208D1012132
:102DB000042000F02DFB0021042000F029FB46E058
:102DC000C748844208D10121082000F021FB0021DE
:102DD000082000F01DFB3AE0C248844208D10121DE
:102DE000102000F015FB0021102000F011FB2EE058
:102DF000BD48844208D10121202000F009FB0021B8
:102E0000202000F005FB22E0B848844208D10121CF
:102E1000402000F0FDFA0021402000F0F9FA16E011
:102E2000B348844208D10121802000F0F1FA00214A
:102E3000802000F0EDFA0AE0AE48844207D101217B
:102E4000801500F0E5FA0021A01500F0E1FA10BDB0
:102E500010B50121084600F0DBFA0021012000F046
:102E6000D7FA10BD2DE9F0410246002500260020CA
:102E700000230024002791F803C00CF00F0591F8FF
:102E800003C00CF0100CBCF1000F03D091F802C08D
:102E90004CEA050591F800C0BCF1000F31D0146870
:102EA00000202BE04FF0010C0CFA00F3B1F800C049
:102EB0000CEA03069E4220D183004FF00F0C0CFA5F
:102EC00003F7BC4305FA03FC4CEA040491F803C081
:102ED000BCF1280F06D14FF0010C0CFA00FCC2F82F
:102EE00014C00AE091F803C0BCF1480F05D14FF0BF
:102EF000010C0CFA00FCC2F810C0401C0828D1D309
:102F00001460B1F800C0BCF1FF0F34DD546800203C
:102F10002EE000F1080C4FF0010808FA0CF3B1F8AC
:102F200000C00CEA03069E4221D183004FF00F0C33
:102F30000CFA03F7BC4305FA03FC4CEA040491F8CD
:102F400003C0BCF1280F05D100F1080C08FA0CF8F9
:102F5000C2F8148091F803C0BCF1480F07D100F10A
:102F6000080C4FF0010808FA0CF8C2F81080401C59
:102F70000828CED35460BDE8F0814FF6FF71018080
:102F8000022181700421C1707047024600209368BD
:102F90000B400BB1012000E000207047014688681B
:102FA00080B2704702460020D3680B400BB101206D
:102FB00000E0002070470146C86880B27047016198
:102FC0007047416170470AB1016100E0416170479B
:102FD000C16070474FF480320A438261816182612F
:102FE00082698269704702460020434B18684FF699
:102FF0008073184040EA021008433F4B1860704746
:103000003E49C8617047F0B50A46002300240021FC
:10301000002500F00046B6F1004F02D1364EF169AE
:1030200001E0354E7168C0F3034583B200F44016E9
:10303000B6F5401F08D121F070612F4E766826F05A
:1030400070662D4F7E6012E000F48016B6F5801F8A
:1030500006D1032606FA05F4A14341F0706106E0AB
:10306000460D360103FA06F6B14341F0706122B114
:10307000460D360103FA06F6314300F00046B6F17C
:10308000004F02D11C4EF16101E01B4E7160F0BD9A
:1030900030B500228B071C0F0F2303FA04F2164BE6
:1030A00008338C1053F824309343134C08348D109C
:1030B00044F8253023468C1053F824308C07240F15
:1030C00000FA04F423430C4C08348D1044F82530E6
:1030D00030BD0A49DC31086070470000000801403B
:1030E000000C014000100140001401400018014094
:1030F000001C01400020014000000140000020426F
:10310000DF48006840F00100DD490860084640687B
:10311000DC490840DA49486008460068DA49084056
:10312000D74908600846006820F4802008600846F7
:10313000406820F4FE0048604FF41F00886070472C
:10314000CF49096821F48031CD4A116011460968E0
:1031500021F480211160B0F5803F03D0B0F5802FBD
:103160000ED106E0C649096841F48031C44A1160B5
:1031700007E0C349096841F4A021C14A116000E099
:1031800000BF00BF704710B5014600220023002099
:103190004A11012A02D1BA4C236806E0022A02D160
:1031A000B74C236A01E0B64C636A01F01F020124A8
:1031B00094401C400CB1012000E0002010BD38B547
:1031C000002000900024002500BF3120FFF7DBFF26
:1031D00005460098401C00900098B0F5A06F01D003
:1031E000002DF2D03120FFF7CEFF08B1012400E01E
:1031F0000024204638BD01460020A14A106820F076
:10320000F80040EAC10010607047A04908607047AC
:10321000024600209A4B586820F47C1042EA0103D1
:103220001843974B586070479849086670470146A5
:103230000020934A506820F0030008435060704714
:103240008F48406800F00C007047014600208C4A0F
:10325000506820F0F000084350607047014600209D
:10326000874A506820F4E060084350607047014688
:103270000020834A506820F4605040EAC10050604A
:10328000704729B17E4A527A02437D4B5A7204E05C
:103290007B4A527A82437A4B5A7270477B49D831C3
:1032A0000860704701460020754A506820F440408D
:1032B0000843506070470021714A20321170704AF3
:1032C00082F82010012802D004280AD104E001214C
:1032D0006B4A2032117005E00521694A20321170D5
:1032E00000E000BF00BF704769490860704764494B
:1032F000096A0143624A11627047654944390860AE
:10330000704730B500210022002400235C4D6D6819
:1033100005F00C0121B1042905D0082923D105E0CD
:103320005C4D056022E05B4D05601FE0544D6D680B
:1033300005F47012524D6D6805F48034022505EBDA
:1033400092421CB9544D554305600BE04C4D6D68DD
:1033500005F400351DB1504D5543056002E04D4D5B
:103360005543056002E04B4D056000BF00BF444D72
:103370006D6805F0F0010909484D6B5C0568DD409A
:1033800045603F4D6D6805F4E061090A434D6B5C93
:103390004568DD4085603A4D6D6805F46051C90AA5
:1033A0003E4D6B5C4568DD40C560354D6D6805F48C
:1033B0004041890B3A4D6B5CC568B5FBF3F505617F
:1033C00030BD29B12E4A526902432D4B5A6104E0A7
:1033D0002B4A526982432A4B5A61704729B1284AC5
:1033E00092690243264B9A6104E0254A926982431E
:1033F000234B9A61704729B1214AD2690243204B7D
:10340000DA6104E01E4AD26982431D4BDA617047DB
:1034100029B11B4AD2680243194BDA6004E0184A0A
:10342000D2688243164BDA60704729B1144A126998
:103430000243134B1A6104E0114A12698243104B94
:103440001A61704712494039086070470F49C864D3
:1034500070470B49C87170470948406A40F0807056
:1034600007494862704701460020054A92680A40B1
:103470000AB1012000E000207047014988727047BE
:10348000001002400000FFF8FFFFF6FE000042427D
:103490008004424200127A0000093D0050040020DE
:1034A0006004002010B50446FE48844208D1012182
:1034B000C014FFF7ADFF0021E014FFF7A9FFC4E03F
:1034C000B4F1804F08D101210846FFF7AEFF00217B
:1034D0000120FFF7AAFFB8E0F348844208D1012198
:1034E0000220FFF7A2FF00210220FFF79EFFACE0C1
:1034F000EE48844208D101210420FFF796FF002105
:103500000420FFF792FFA0E0E948844208D101219E
:103510000820FFF78AFF00210820FFF786FF94E0CC
:10352000E448844208D101211020FFF77EFF0021EA
:103530001020FFF77AFF88E0DF48844208D101219C
:103540002020FFF772FF00212020FFF76EFF7CE0B4
:10355000DA48844208D101214014FFF759FF0021C5
:103560006014FFF755FF70E0D548844209D101216E
:10357000C804FFF74DFF00214FF40020FFF748FF7C
:1035800063E0D048844209D101210805FFF740FFDC
:1035900000214FF48010FFF73BFF56E0CA488442F9
:1035A00009D101214805FFF733FF00214FF4001036
:1035B000FFF72EFF49E0C548844208D10121402091
:1035C000FFF733FF00214020FFF72FFF3DE0C04809
:1035D000844208D101218020FFF727FF00218020AD
:1035E000FFF723FF31E0BB48844208D10121801559
:1035F000FFF71BFF0021A015FFF717FF25E0B648D6
:10360000844209D101210804FFF702FF00214FF491
:103610008030FFF7FDFE18E0B048844209D1012157
:103620004804FFF7F5FE00214FF40030FFF7F0FEED
:103630000BE0AB48844208D101218804FFF7E8FE83
:1036400000214FF48020FFF7E3FE10BD0022028826
:10365000944B98420ED0994B98420BD0B0F1804FCA
:1036600008D0914B984205D0904B984202D0904B95
:10367000984204D14FF68F731A404B881A438D4BF2
:10368000984207D08C4B984204D04FF6FF431A4023
:10369000CB881A4302808B8883850B880385814BF6
:1036A00098420BD0854B984208D08B4B984205D05E
:1036B0008A4B984202D08A4B984201D10B7A0386FA
:1036C00001238382704770B5002400220023058CFB
:1036D0004FF6FE7635400584028C8388048B4FF6C6
:1036E0008F752C40B51E2C400D882C43751E2A402A
:1036F0000D892A434D882A436A4DA8420BD06F4D4D
:10370000A84208D0744DA84205D0744DA84202D0FA
:10371000734DA84213D14FF6F7752A404D892A43BD
:103720004FF6FB752A408D882A434FF6FF652B40E4
:103730004FF6FF552B408D892B43CD892B4383803A
:103740000483CD888586028470BD70B50024002274
:103750000023058C4FF6EF7635400584028C838874
:10376000048B48F6FF752C404FF6FF452C400D8822
:103770004FF6FF7606EA05252C434FF6DF752A4003
:103780000D8906EA05152A434D8806EA05152A43E0
:10379000444DA84202D0494DA8421DD14FF67F7535
:1037A0002A404D894FF6FF7606EA05152A434FF663
:1037B000BF752A408D8806EA05152A434FF6FF3566
:1037C0002B404FF2FF752B408D8906EA85052B4370
:1037D000CD8906EA85052B4383800483CD88058740
:1037E000028470BD70B5002400220023058C4FF6C2
:1037F000FF6635400584028C8388848B4FF68F7575
:103800002C404FF6FC752C400D882C434FF6FF558D
:103810002A400D894FF6FF7606EA05252A434D8892
:1038200006EA05252A431F4DA84202D0234DA8428F
:103830001DD14FF2FF752A404D894FF6FF7606EAFB
:1038400005252A434FF6FF352A408D8806EA0525CF
:103850002A434EF6FF752B404DF6FF752B408D89A0
:1038600006EA05152B43CD8906EA05152B4383800F
:103870008483CD888587028470BD70B500220023C3
:103880000024058C4EF6FF7635400584038C848831
:10389000828B48F6FF752A404FF6FF452A400D8877
:1038A00020E00000002C014000040040000800401F
:1038B000000C0040001000400014004000340140A3
:1038C000004C0140005001400054014000180040ED
:1038D000001C004000200040004001400044014026
:1038E000004801404FF6FF7606EA05252A434DF6CB
:1038F000FF752B400D8906EA05352B434D8806EAF6
:1039000005352B43FA4DA84202D0FA4DA84208D102
:103910004BF6FF752C408D894FF6FF7606EA85152C
:103920002C4384808283CD88A0F84050038470BDEE
:10393000828B4FF2FF331A408283828B4FF6FF73E4
:1039400003EA01231A4382837047F0B50C461546FB
:10395000002200210026078C4EF6FF7C07EA0C07A8
:103960000784828B018C4FF6FF7707EA043640F616
:10397000FF473A404FF6FF7707EA05273A434FF6ED
:10398000FF7707EA03373A43D94FB8420ED0D94FF1
:10399000B8420BD0B0F1804F08D0D74FB84205D015
:1039A000D64FB84202D0D64FB84206D14DF6FF7777
:1039B000394046F48057394305E047F6FF57394010
:1039C00044F48057394382830184F0BD828B4FF6E3
:1039D000F3731A408283828B0A4382837047F0B567
:1039E0000C461546002200210026078C4FF6FF6C7E
:1039F00007EA0C070784828B018C4FF6FF7707EAF2
:103A000004264FF60C773A404FF6FF7707EA031784
:103A10002F433A43B64FB8420ED0B64FB8420BD000
:103A2000B0F1804F08D0B44FB84205D0B34FB84280
:103A300002D0B34FB84206D14FF6FF57394046F493
:103A40008077394305E04FF2FF57394044F48077DF
:103A5000394382830184F0BD028B4FF2FF331A4059
:103A60000283028B4FF6FF7303EA01231A4302839A
:103A70007047F0B50C461546002200210026078C41
:103A80004FF6EF7C07EA0C070784028B018C4FF698
:103A9000FF7707EA041640F6FF473A404FF6FF77F4
:103AA00007EA03373A434FF6FF7707EA05273A4319
:103AB0008F4FB8420ED08F4FB8420BD0B0F1804F2D
:103AC00008D08D4FB84205D08C4FB84202D08C4FF1
:103AD000B84206D14FF6DF77394046F01007394338
:103AE00005E04FF65F77394044F010073943028311
:103AF0000184F0BD028B4FF6F3731A400283028BF0
:103B00000A4302837047F0B50C4615460022002197
:103B1000068C4FF6FE773E400684028B018C4FF6F2
:103B20000C7632407E1C06EA03162E433243704E5A
:103B3000B0420ED06F4EB0420BD0B0F1804F08D0E3
:103B40006D4EB04205D06D4EB04202D06C4EB042C8
:103B500006D14FF6FD76314044F00106314305E0D1
:103B60004FF6F576314044F001063143028301847B
:103B7000F0BD70B505460C465D4885420ED05D48E7
:103B800085420BD0B5F1804F08D05B48854205D007
:103B90005A48854202D05A48854200D100E000BF11
:103BA000208850B92389A28861882846FFF7ABFF97
:103BB000E1882846FFF79EFF25E0208804280AD1E7
:103BC0002389A28861882846FFF753FFE1882846A9
:103BD000FFF742FF17E0208808280AD12389A2882E
:103BE00061882846FFF7FBFEE1882846FFF7EEFED6
:103BF00009E02389A28861882846FFF7A6FEE188AC
:103C00002846FFF795FE70BD2DE9F04105460C46AC
:103C100000260127608808B9022600E00026A08857
:103C2000012801D1022700E001272088A0B92389BB
:103C3000A28861882846FFF766FFE1882846FFF7DB
:103C400059FF23893A4631462846FFF712FFE1889B
:103C50002846FFF701FF13E02389A28861882846E0
:103C6000FFF707FFE1882846FFF7F6FE23893A466B
:103C700031462846FFF747FFE1882846FFF73AFF1D
:103C8000BDE8F0810A884B881A438B881A43CB8899
:103C90001A430B891A434B891A438B891A43A0F89C
:103CA000442070474FF6FF71818000210180C18060
:103CB0004180017270470021018041808180C18074
:103CC000018141818181C181704700210180418052
:103CD000012181800021C180018170470021018084
:103CE00041808180C18001814181818170470000D4
:103CF000002C014000340140000400400008004056
:103D0000000C004021B1028842F00102028004E070
:103D100002884FF6FE731A400280704731B1B0F846
:103D2000442042F40042A0F8442005E0B0F84420CA
:103D3000C2F30E02A0F8442070471AB183890B43E6
:103D4000838102E083898B4383817047818270473E
:103D500041EA0203A0F8483070471AB183890B4347
:103D6000838102E083898B438381704701894FF609
:103D7000F8721140018170470A46002101894FF60F
:103D80008F73194011430181704730B504460D46C9
:103D900029462046FFF7F0FF208940F007002081E8
:103DA00030BD2DE9F04104460D4616461F46602DF4
:103DB00006D13B46012231462046FFF75AFE05E078
:103DC0003B46012231462046FFF79DFE294620460C
:103DD000FFF7D2FF208940F007002081BDE8F08185
:103DE00030B50C4600210189C9B24FF6FF7505EACE
:103DF0000325154325432943018130BD2DE9F041B9
:103E000005460E4617469846002443463A46314634
:103E10002846FFF7E5FF2C894FF6F870044044F080
:103E200007044FF68F70044044F070042C81BDE805
:103E3000F081F0B504460D4616461F463B46324615
:103E400029462046FFF7CCFF208940F4804020819E
:103E5000F0BD0185828270470A46002101884FF635
:103E60008F731940114301807047F0B50C46154619
:103E70001E460021002200230189028B038C4FF68D
:103E8000F877394021434FF6FC473A4040F201179A
:103E90003A434FF6DD773B404FF6FF7707EA0617C8
:103EA0002F433B43018102830384F0BD0A46002176
:103EB000018B4FF68F7319401143018370470A46F7
:103EC0000021018B48F6FF7319404FF6FF7303EA98
:103ED00002231943018370470A460021818B4FF664
:103EE0008F7319401143818370470A460021818BEB
:103EF00048F6FF7319404FF6FF7303EA0223194394
:103F00008183704721B1028842F08002028004E080
:103F100002884FF67F731A400280704721B1828871
:103F200042F00402828004E082884FF6FB731A405C
:103F30008280704721B1828842F00802828004E0CA
:103F400082884FF6F7731A408280704721B18288C9
:103F500042F00102828004E082884FF6FE731A402C
:103F6000828070470A460021018B4FF6F773194093
:103F70001143018370470A460021018B4FF2FF7302
:103F800019404FF6FF7303EA022319430183704778
:103F90000A460021818B4FF6F77319401143818344
:103FA00070470A460021818B4FF2FF7319404FF68C
:103FB000FF7303EA02231943818370470A460021F5
:103FC000018B4FF6FB7319401143018370470A467A
:103FD0000021018B4FF6FF3319404FF6FF7303EAC0
:103FE00002231943018370470A460021818B4FF653
:103FF000FB7319401143818370470A460021818B6E
:104000004FF6FF3319404FF6FF7303EA02231943BB
:10401000818370470A460021018B4FF67F73194058
:104020001143018370470A460021018BC1F30E0141
:104030004FF6FF7303EA02231943018370470A46D0
:104040000021818B4FF67F731940114381837047A4
:104050000A460021818BC1F30E014FF6FF7303EA7C
:1040600002231943818370470A460021018C4FF6D1
:10407000FD7319401143018470470A460021018CE9
:104080004FF6F77319401143018470470A46002127
:10409000018C4FF6DF7319404FF6FF7303EA0213EA
:1040A0001943018470470A460021018C4FF67F7343
:1040B00019404FF6FF7303EA021319430184704756
:1040C0000A460021018C4FF6FF5319404FF6FF734B
:1040D00003EA02231943018470470A460021018C38
:1040E0004FF2FF7319404FF6FF7303EA022319439F
:1040F000018470470A460021018C4DF6FF73194078
:104100004FF6FF7303EA023319430184704730B559
:10411000002301248C40A3B2048C9C430484048CAF
:1041200002FA01F5ADB22C43048430BD30B5002352
:1041300004248C40A3B2048C9C430484048C02FAB3
:1041400001F5ADB22C43048430BD70B503460020A8
:1041500000241846183001258D40ACB21D8CA543B3
:104160001D8409B1082909D100EB6100056825F01B
:10417000700505600568154305600EE00D1FC5F369
:104180004E052844056825F4E045056005684FF6AE
:10419000FF7606EA02263543056070BD21B102882C
:1041A00042F00202028004E002884FF6FD731A40DA
:1041B0000280704721B1028842F00402028004E0CC
:1041C00002884FF6FB731A400280704721B1828843
:1041D00042F08002828004E082884FF67F731A40AA
:1041E0008280704702884FF6F7731A400280028877
:1041F0000A430280704782884FF68F731A4082808C
:1042000082880A438280704702894FF6F8731A4009
:10421000028102890A430281704702894FF67F7347
:104220001A40028102890A430281704781847047E3
:104230008185704781867047018770478187704705
:10424000A0F84010704702884FF6FF431A400280E2
:1042500002880A43028070470146888E70470146F3
:10426000088F70470146888F70470146B1F84000BB
:1042700070470146888C70470146088D704702469A
:104280000020138A0B400BB1012000E00020704792
:10429000CA430282704730B5024600200023002442
:1042A000158A05EA0103958905EA010413B10CB1E9
:1042B000012000E0002030BDCA43028270470000A8
:1042C00010B50446FB48844209D101218803FFF759
:1042D0009FF800214FF48040FFF79AF832E0F6484B
:1042E000844209D101214804FFF79FF800214FF4CF
:1042F0000030FFF79AF825E0F048844209D1012107
:104300008804FFF792F800214FF48020FFF78DF822
:1043100018E0EB48844209D10121C804FFF785F871
:1043200000214FF40020FFF780F80BE0E5488442BD
:1043300008D101210805FFF778F800214FF480101B
:10434000FFF773F810BD2DE9F04786B005460E461D
:104350000024A24600BFA1460027B08900B100BFDB
:104360002F462C8A4CF6FF700440F08804432C82C0
:10437000AC894EF6F3100440B08831890843718946
:1043800008430443AC81AC8A4FF6FF400440B08937
:104390000443AC8201A8FEF7B4FFC648874202D1AD
:1043A000DDF810A001E0DDF80CA0A88900F40040C1
:1043B00040B10AEBCA0000EB0A1031684900B0FBBB
:1043C000F1F807E00AEBCA0000EB0A103168890037
:1043D000B0FBF1F86420B8FBF0F00401200964217F
:1043E00001FB1089A88900F4004040B1322000EBA5
:1043F000C900B0FBF1F000F00700044308E03220F0
:1044000000EB09106421B0FBF1F000F00F00044351
:104410002C8106B0BDE8F0874FF4165101600021F1
:104420008180C18001810C214181002181817047FF
:1044300010B502460020108A4FF2FF0318400B8887
:104440004C8823438C882343CC8823431843108211
:1044500010BD0021018041808180C180704721B161
:10446000828942F40052828104E082894DF6FF7312
:104470001A4082817047F0B50346002400260025CB
:10448000002040F66A17B94200D100BF1846C1F3B8
:10449000421401F01F06012707FA06F5012C01D18D
:1044A0000C3004E0022C01D1103000E014301AB1BD
:1044B00007682F43076002E00768AF430760F0BD5D
:1044C0001AB1838A0B43838202E0838A8B438382FF
:1044D0007047028A4FF6F0731A400282028A0A433A
:1044E0000282704782894FF2FF731A40828182896B
:1044F0000A438281704721B1828942F0020282819F
:1045000004E082894FF6FD731A4082817047028A67
:104510004FF6DF731A400282028A0A430282704712
:1045200021B1028A42F48042028204E0028A4BF600
:10453000FF731A4002827047C1F3080282807047FD
:1045400001468888C0F308007047818941F0010165
:1045500081817047028BD2B20283028B42EA012230
:1045600002837047028B02F47F420283028B0A436C
:104570000283704721B1828A42F02002828204E0E5
:10458000828A4FF6DF731A408282704721B1828A95
:1045900042F01002828204E0828A4FF6EF731A40E2
:1045A0008282704721B1828A42F00802828204E04E
:1045B000828A4FF6F7731A408282704721B182894E
:1045C00042F40042828103E08289C2F30E028281BA
:1045D000704721B1828A42F40062828204E0828ABA
:1045E0004FF2FF731A4082827047828A4FF6FB7344
:1045F0001A408282828A0A438282704721B1828A6B
:1046000042F00202828204E0828A4FF6FD731A4071
:104610008282704702460020B1F5007F00D100BFC2
:1046200013880B400BB1012000E00020704701F41B
:104630000072B2F5007F00D100BFCA43028070470C
:1046400070B50246002400230025002040F66A16BB
:10465000B14200D100BFC1F3421501F01F03012692
:1046600006FA03F3012D02D19689334006E0022DAC
:1046700002D1168A334001E0968A33400C1201269B
:1046800006FA04F41688344013B10CB1012000E09E
:10469000002070BD10B50022002340F66A14A1422C
:1046A00000D100BF0A1201249440A3B2DC4304806D
:1046B00010BD0000003801400044004000480040A8
:1046C000004C004000500040F0B480EA0102D40FDA
:1046D0004200B2EB410F02D20246084611464A00A0
:1046E00042D0C30DDDB2C1F3C752AD1A202D35DA69
:1046F000C1F3160141F4000204B15242C5F1200693
:1047000002FA06F12A411044B3EBD05F23D0C4B1C2
:10471000012DA0EBC35009DCF0BC4FF0004202EACF
:10472000C352DBB200F5000000F030BB400000F1E6
:10473000807000EBC350A0F1807040EAD170490056
:1047400009E0490841EAC071A0EBC35000F5000040
:10475000400800EBC350F0BC00F00FBB61420122E7
:1047600002EB4101001BF6E7F0BC704781F000410D
:10477000AAE780F00040A7E780EA010210B502F046
:104780000043400022D04A001FD0010E01EB12610D
:10479000C0F35600C2F3560240F4000042F4000297
:1047A000A0FB022000047F39140400D0401C50EA12
:1047B000124001D44000491EC2B20C0604EBD010D6
:1047C000401C4008802A02D003E0002010BD20F0E9
:1047D0000100002900DA0020184310BD30B480EA3F
:1047E000010202F0004530F0004221F0004013D0F9
:1047F00090B1C30DD40DC2F31601C0F31600E41A34
:1048000041F4000140F400027D34914201D3641C64
:1048100000E04900002C02DA30BC002070474FF461
:1048200000000023914201D3891A034340084FEA54
:104830004101F7D151B1914202D14FF0004105E061
:1048400002D24FF0010101E06FF0010103EBC4500F
:10485000284430BC00F091BA2DE9FE4F804681EA31
:104860000300C00F0C46009021F0004123F00045EA
:10487000B8EB0200A94105D24046214690461C46AD
:104880000B46024623F00040104347D0270DC7F3E4
:104890000A00C3F30A510290401A019040286BDAD3
:1048A000C3F3130040F4801B0098924620B100230C
:1048B000D2EB030A63EB0B0B01985946C0F140029F
:1048C000504600F029FA06460D4650465946019AD0
:1048D00000F041FA10EB08006141002487EA115210
:1048E00084EAE7731A4340D0009A62B3019A012A1E
:1048F0004FEA075215DC001B61EB02014FF000424A
:1049000002EA0752CDE90042001C41F5801132460F
:104910002B4600F078FA03B0BDE8F08F4046214600
:10492000F9E7001B61EB0201001C41F58013001840
:104930005B412018A2F5001747EB030140EAD57050
:10494000B6196D4111E06D084FEA360645EAC075AB
:104950004FEA0752001B61EB0201001C41F5801178
:1049600049084FEA30000019514132462B4603B046
:10497000BDE8F04F00F038BA009801224000002353
:10498000D0EB020263EBE073009821464FEAE0743B
:10499000B8EB000061EB0401E9E783F000435BE75B
:1049A00081F0004158E72DE9FE4F81EA030404F04D
:1049B000004421F0004100944FF0000B23F000432D
:1049C00050EA01045ED052EA03045BD0C3F30A54F8
:1049D000C1F30A552C44A4F2F3340194A0FB025411
:1049E000C1F3130141F48011C3F3130343F48013A3
:1049F00001FB024400FB034E840A970A44EA8154F7
:104A000047EA8357A4FB076802958D0A05FB0785D3
:104A10004FEA932C04FB0C542705029D4FEA0658DD
:104A200047EA1637B5EB08056EEB070C870E920EBA
:104A300047EA811742EA8312A7FB0201B6EB0B019A
:104A400064EB00042B0D43EA0C335E1844EB1C505E
:104A5000DA465146E7FB0201C5F313044FEA0B3374
:104A600043EA14534FEA0432019C43EA0603A4F1DB
:104A70000C040294009CCDE900B400F0C4F903B02A
:104A8000BDE8F08F00200146F9E72DE9F04D81EAFD
:104A9000030404F0004B21F0004514464FF0000AD7
:104AA00023F0004150EA050220D054EA01021DD053
:104AB000C5F30A570246C5F31303C1F31300C1F34C
:104AC0000A5640F4801543F48013A7EB0608101B28
:104AD000D64608F2FD3873EB050002D308F1010851
:104AE00001E092185B41B8F1000F03DA00200146A3
:104AF000BDE8F08D00204FF48011064684460EE09C
:104B0000171B73EB050705D3121B63EB0503064365
:104B10004CEA010C49084FEA300092185B4150EA18
:104B20000107EDD152EA030012D082EA040083EAC1
:104B30000501084305D0101BAB4106D2012200231A
:104B400006E000224FF0004302E06FF00102531034
:104B50001AEB06004CEB085110EB0A0041EB0B017D
:104B6000BDE8F04D00F040B9C10F80EAE0700844A4
:104B7000CA079623002100F009B9962300221146A6
:104B800000F004B90EB5C10F80EAE0700844CA070E
:104B9000002140F233438DE80E000A460B4600F038
:104BA00032F903B000BD0EB540F23341029100214D
:104BB000CDE900110A460B4600F025F903B000BD0F
:104BC00000F0004220F00040C10DC0F3160040F498
:104BD00000007F2901DA00207047962903DCC1F12B
:104BE0009601C84001E096398840002AF4D040423E
:104BF000704770B5C1F30A5201F000450024C1F3BB
:104C0000130140F2FF3341F480119A4201DA00208F
:104C100070BD40F233439A42A2F2334203DC524267
:104C200000F089F800E090402C43F1D0404270BD84
:104C3000C1F30A5210B5C1F3130140F2FF3341F43E
:104C400080119A4201DA002010BD40F233439A42AB
:104C5000A2F2334203DC524200F06DF810BD9040E6
:104C600010BD00F0004230F000400AD0C10D01F547
:104C70006071C0F3160042EA0151C20840071143B7
:104C8000704700200146704730B5041E71F10004E2
:104C900004DB4FF00044404264EB0101141E73F149
:104CA000000405DB1C464FF00043524263EB040353
:104CB0008B4208BF824230BD01F0004330B421F086
:104CC000004150EA010206D00A0DA2F56072C1F35C
:104CD0001301002A02DC30BC00207047440F44EA74
:104CE000C104C100E01830BC00EBC25000F045B870
:104CF000002801DBC0F10040002901DBC1F10041C7
:104D000081427047002801DBC0F10040002901DB2F
:104D1000C1F1004188427047202A04DB203A00FAA2
:104D200002F1002070479140C2F1200320FA03F302
:104D3000194390407047202A04DB203A21FA02F000
:104D40000021704721FA02F3D040C2F120029140C5
:104D5000084319467047202A06DBCB17203A41FA50
:104D600002F043EAE07306E041FA02F3D040C2F1F8
:104D7000200291400843194670470029A8BF704798
:104D8000401C490008BF20F00100704710B4B0FA81
:104D900080FC00FA0CF050EA010404BF10BC70471C
:104DA00049B1CCF1200421FA04F411FA0CF118BF36
:104DB000012121430843A3EB0C01CB1D4FEA006105
:104DC0004FEA102042BF002010BC704700EBC350D8
:104DD00010440029A4BF10BC7047401C490008BF04
:104DE00020F0010010BC704710B5141E73F10004D0
:104DF00008DA401C41F1000192185B411A4301D1CD
:104E000020F0010010BD2DE9F04D92469B4611B1F6
:104E1000B1FA81F202E0B0FA80F220329046FFF758
:104E20007BFF04460F4640EA0A0041EA0B01534665
:104E30005A46084313D0114653EA010019D0C8F16D
:104E400040025046FFF777FF05460E46504659464A
:104E50004246FFF761FF084305D0012004E02046E9
:104E60003946BDE8F08D0020054346EAE0762C4344
:104E700037430A986305E40AA0EB08000022FD0A04
:104E800044EA47540A3002D500200146E9E701050B
:104E900010196941DDE9084500196941BDE8F04D87
:104EA000A2E70000064C074D06E0E06840F0010371
:104EB00094E8070098471034AC42F6D3FBF71AF990
:104EC000545700087457000870B58C1810F8015B2F
:104ED00015F0070301D110F8013B2A1106D110F893
:104EE000012B03E010F8016B01F8016B5B1EF9D197
:104EF0002B0705D40023521E0DD401F8013BFAE71D
:104F000010F8013BCB1A921C03E013F8015B01F887
:104F1000015B521EF9D5A142D8D3002070BD02E03A
:104F200008C8121F08C1002AFAD170477047002034
:104F300001E001C1121F002AFBD1704700000000F0
:104F400000000000002F0000000007000700001410
:104F50007F147F1400242A7F2A120062640813231E
:104F600000364955225000000503000000001C22B5
:104F70004100000041221C000014083E08140008F3
:104F8000083E0808000000A06000000808080808A3
:104F9000000060600000002010080402003E51493B
:104FA000453E0000427F40000042615149460021D9
:104FB00041454B31001814127F10002745454539F3
:104FC000003C4A494930000171090503003649494E
:104FD000493600064949291E000036360000000007
:104FE0005636000000081422410000141414141452
:104FF00000004122140800020151090600324959FB
:10500000513E007C1211127C007F49494936003E16
:1050100041414122007F4141221C007F49494941D1
:10502000007F09090901003E4149497A007F0808CB
:10503000087F0000417F4100002040413F01007F88
:1050400008142241007F40404040007F020C027F54
:10505000007F0408107F003E4141413E007F090966
:105060000906003E4151215E007F0919294600468C
:10507000494949310001017F0101003F4040403F63
:10508000001F2040201F003F4038403F00631408AD
:105090001463000708700807006151494543000088
:1050A0007F41410000552A552A55000041417F00AB
:1050B00000040201020400404040404000000102A0
:1050C0000400002054545478007F48444438003889
:1050D0004444442000384444487F00385454541811
:1050E00000087E0901020018A4A4A47C007F080423
:1050F00004780000447D4000004080847D00007FF3
:10510000102844000000417F4000007C041804780F
:10511000007C0804047800384444443800FC24240B
:1051200024180018242418FC007C080404080048F3
:105130005454542000043F444020003C4040207C14
:10514000001C2040201C003C4030403C0044281003
:105150002844001CA0A0A07C004464544C441414B7
:1051600014141414000000000000000000000000EF
:1051700000000000000000F8000000000000003304
:105180003000000000100C06100C060000000000AB
:105190000000000040C07840C0784000043F040494
:1051A0003F040400007088FC08300000001820FF55
:1051B000211E0000F008F000E018000000211C0390
:1051C0001E211E0000F00888700000001E2123240C
:1051D0001927211010160E0000000000000000002A
:1051E00000000000000000E01804020000000007BA
:1051F0001820400000020418E000000000402018C1
:1052000007000000404080F0804040000202010F93
:1052100001020200000000F0000000000101011F77
:1052200001010100000000000000000080B07000DB
:10523000000000000000000000000000000101016B
:1052400001010101000000000000000000303000FA
:1052500000000000000000008060180400601806D4
:105260000100000000E010080810E000000F10200E
:1052700020100F00001010F8000000000020203F58
:1052800020200000007008080888700000302824E2
:105290002221300000300888884830000018202083
:1052A00020110E000000C02010F8000000070424A8
:1052B000243F240000F808888808080000192120ED
:1052C00020110E0000E0108888180000000F112047
:1052D00020110E0000380808C83808000000003F00
:1052E000000000000070880808887000001C22215F
:1052F00021221C0000E010080810E000000031220C
:1053000022110F00000000C0C000000000000030AB
:1053100030000000000000800000000000008060FD
:10532000000000000000804020100800000102047E
:105330000810200040404040404040000404040465
:105340000404040000081020408000000020100821
:1053500004020100007048080808F0000000003056
:1053600036010000C030C828E810E00007182724E4
:1053700023140B000000C038E0000000203C230292
:105380000227382008F8888888700000203F2020F5
:1053900020110E00C0300808080838000718202027
:1053A0002010080008F808080810E000203F20201E
:1053B00020100F0008F88888E8081000203F2020FF
:1053C0002320180008F88888E8081000203F2000F3
:1053D00003000000C030080808380000071820202B
:1053E000221E020008F808000008F808203F2101EA
:1053F00001213F20000808F8080800000020203F95
:105400002020000000000808F8080800C080808004
:105410007F00000008F888C028180800203F2001FD
:105420002638200008F8080000000000203F202057
:105430002020300008F8F800F8F80800203F003F6E
:10544000003F200008F830C00008F808203F200086
:1054500007183F00E01008080810E0000F10202097
:1054600020100F0008F808080808F000203F21016C
:1054700001010000E01008080810E0000F182424C3
:1054800038504F0008F8888888887000203F200036
:10549000030C3020007088080808380000382021EC
:1054A00021221C00180808F8080818000000203FF6
:1054B0002000000008F808000008F808001F20205D
:1054C00020201F000878880000C83808000007382E
:1054D0000E010000F80800F80008F800033C07007F
:1054E000073C0300081868808068180820302C03E7
:1054F000032C30200838C800C83808000000203FBE
:105500002000000010080808C838080020382621AC
:1055100020201800000000FE020202000000007FB0
:1055200040404000000C30C00000000000000001BE
:105530000638C00000020202FE00000000404040A9
:105540007F000000000004020202040000000000CE
:10555000000000000000000000000000808080804B
:105560008080808000020204000000000000000033
:1055700000000000000080808080000000192422CC
:1055800022223F2008F8008080000000003F112008
:1055900020110E000000008080800000000E11200D
:1055A00020201100000000808088F800000E1120EB
:1055B00020103F200000808080800000001F2222F9
:1055C00022221300008080F0888888180020203F65
:1055D000202000000000808080808000006B949478
:1055E0009493600008F8008080800000203F210034
:1055F00000203F2000809898000000000020203FFD
:1056000020200000000000809898000000C08080EA
:10561000807F000008F8000080808000203F240286
:105620002D302000000808F8000000000020203F76
:10563000202000008080808080808000203F20002B
:105640003F20003F8080008080800000203F2100BC
:1056500000203F200000808080800000001F20206C
:1056600020201F00808000808000000080FFA1209B
:1056700020110E000000008080808000000E1120AC
:1056800020A0FF80808080008080800020203F213B
:1056900020000100000080808080800000332424EE
:1056A00024241900008080E0808000000000001F9A
:1056B000202000008080000000808000001F20204B
:1056C00020103F20808080000080808000010E300C
:1056D0000806010080800080008080800F300C036D
:1056E0000C300F0000808000808080000020312E70
:1056F0000E312000808080000080808080818E704C
:105700001806010000808080808080000021302CFD
:105710002221300000000000807C02020000000016
:10572000003F404000000000FF00000000000000BB
:10573000FF0000000002027C800000000040403FAB
:105740000000000000060101020204040000000045
:1057500000000000745700080000002064040000EE
:10576000C84E000830590008640400204C040000B2
:105770002E4F0008012002306184A24A0400091261
:10578000010203040607080923FAC3032020C032DC
:105790005052281BF010012AFF050215F01B0F04C0
:1057A000012AFF0502130F18094040405F55555567
:1057B00075041A5F0C091121080C11200F09498981
:1057C000790909090F201F112FFE02424ACA4A0314
:1057D00004134202FE000E14FF40504C4340404F61
:1057E00050505C40FF1BF888012AFF050215F81B8A
:1057F0001F08012A7F200B109F80E23B808201005E
:105800000916E2A2928A86828080041840807F175F
:105810002424A4FEA3221B22CCAA011415080601ED
:10582000FF2B0104010511FF02020258081010109D
:10583000FF109008C3021108080F100444827F0172
:10584000808040432C10284681A0180940404848D9
:1058500048C8784F0605154848404000091503120E
:10586000122222528A063C106080BA19040B11C021
:1058700030FB1E404043407F061C7F424106094FDB
:10588000C02941080B1110D030FF30D0121C10106D
:105890001F3D080402019E0D11010204082111168A
:1058A000FE222222FE0712FE828292A29E10088011
:1058B000601F0242827F0F11FF402F102C43801186
:1058C000000B1490884C57A42454548C841808015D
:1058D000018042221A07441D423E01018AF9E1007B
:1058E0000D14E4242CB4252624B42C24E404180A32
:1058F000FF02011E1212121E418609136213420199
:1059000012021203120412051206120712081209DB
:10591000120A120B120C120D120E120FC9F42D01E5
:10592000020304040009000607080902040608002F
:04000005080000ED02
:00000001FF
